:020000040000FA
:10000000700200106901000071010000730100001E
:100010007501000077010000790100000000000078
:100020000000000000000000000000007B01000054
:100030007D010000000000007F0100008101000040
:1000400083010000830100008301000083010000A0
:100050008301000083010000830100008301000090
:100060008301000083010000830100008301000080
:100070008301000083010000830100008301000070
:100080008301000083010000830100008301000060
:100090008301000083010000830100008301000050
:1000A0008301000083010000830100008301000040
:1000B0008301000083010000830100008301000030
:1000C00083010000830100008301000000F002F8BA
:1000D00000F03AF80AA090E8000C82448344AAF1A8
:1000E0000107DA4501D100F02FF8AFF2090EBAE8A6
:1000F0000F0013F0010F18BFFB1A43F0010318475C
:10010000982C0000B82C0000103A24BF78C878C1A1
:10011000FAD8520724BF30C830C144BF04680C600D
:10012000704700000023002400250026103A28BF55
:1001300078C1FBD8520728BF30C148BF0B60704759
:100140001FB51FBD10B510BD00F0A6F81146FFF792
:10015000F7FF01F085F800F0C4F803B4FFF7F2FFF1
:1001600003BC01F0D3F90000094880470948004763
:10017000FEE7FEE7FEE7FEE7FEE7FEE7FEE7FEE757
:10018000FEE7FEE704480549034A054B70470000B7
:10019000A9040000CD0000007000001070020010E3
:1001A0007000001053EA020C00F069802DE9F04B5A
:1001B0004FF00006002B1FBFB3FA83F503FA05F4D6
:1001C00024FA05F65E4012BF1643B2FA82F502FA2F
:1001D00005F4C5F120051EBF22FA05FC44EA0C0413
:1001E000203556EA044C4FEA144418BF641C4FF003
:1001F00000084FF00009904271EB030C39D300293D
:1002000019BFB1FA81F701FA07F6B0FA80F700FAE0
:1002100007F6C7F120071EBF20FA07FC46EA0C06C6
:100220002037B6FBF4FCA7EB0507103F07F01F0BC8
:10023000CBF120060CFA0BFB2CFA06F644BFB346B2
:100240000026202FA4BF5E464FF0000B5BEA060C91
:1002500008BF4FF0010B19EB0B09ABFB027C48EB1D
:100260000608C01B06FB02CC0BFB03CC71EB0C0198
:10027000C1E70B46024641464846BDE8F08B13B540
:100280004FF000004FF00001AFF30080BDE81C40CC
:100290007047704770477047754600F029F8AE46C2
:1002A00005006946534620F00700854618B020B582
:1002B000FFF768FFBDE820404FF000064FF0000751
:1002C0004FF000084FF0000B21F00701AC46ACE8FE
:1002D000C009ACE8C009ACE8C009ACE8C0098D466B
:1002E00070470446AFF300802046FFF736FF00005A
:1002F000004870470C00001070470000FFFFFFFF30
:100300002DE9F047B1480068C0F3016003287CD1B3
:10031000AF48006810F0030006D0012833D002284F
:100320005FD003282ED100E000BFA8480068C0F3CA
:10033000074000F101044FF00201A648D0F8880000
:10034000C0F30E0000F10100A1FB0001A24B4FF031
:10035000000CA0FB037901FB039100FB0C1122466A
:1003600063463846FFF71EFF05469C480068C0B24A
:1003700000F1010422464FF000032846FFF712FF68
:10038000974908605DE091480068C0F3074000F1BC
:1003900001044FF002018F48D0F88800C0F30E002E
:1003A00000F10100A1FB00108E4A4FF0000CA1FBF0
:1003B000027900FB029001FB0C012246634638469D
:1003C000FFF7F0FE054685480068C0B200F1010461
:1003D00022464FF000032846FFF7E4FE80490860FC
:1003E0002FE07A480068C0F3074000F101044FF0A5
:1003F00002017848D0F88800C0F30E0000F1010037
:10040000A1FB00124FF4004000E01BE04FF000039E
:10041000A1FB007902FB009001FB03012246384654
:10042000FFF7C0FE05466D480068C0B200F1010448
:1004300022464FF000032846FFF7B4FE68490860E3
:1004400000BF2FE06248006810F0030006D00128CA
:1004500010D0022819D0032823D100E000BF5F4844
:100460000068C0B200F101005B49B1FBF0F05C49EB
:10047000086016E059480068C0B200F1010059490F
:10048000B1FBF0F0564908600BE054480068C0B278
:1004900000F101004FF40041B1FBF0F05049086059
:1004A00000BF00BFBDE8F08720204F4908604948E1
:1004B000D0F8A00110F0200F05D000BF4A48006816
:1004C00010F0400FFAD00320444908604FF00000BC
:1004D0004049C1F8A801454908604FF001003C4976
:1004E00008604348434908604FF0AA004249086049
:1004F0004FF0550008604FF00100404908604FF090
:10050000AA003D4908604FF055003249C1F88C00FF
:1005100000BF2E48006810F0806FFAD003203749E2
:1005200008604FF0AA002B49C1F88C004FF055002D
:100530003149086000BF2548006800F04070B0F104
:10054000407FF8D123202E4908604FF0AA002149AE
:10055000C1F8AC004FF055002A4908604FF0010087
:10056000294908604FF0AA00264908604FF055005D
:100570001849C1F8AC0000BF2448006810F4806F2F
:10058000FAD00320204908604FF0AA001149C1F8B1
:10059000AC004FF055001B49086000BF1B480068C5
:1005A00000F44070B0F5407FF8D11948194908604F
:1005B0004FF000000749C1F8C8010846006820F460
:1005C000704040F4804008607047000088C00F40D1
:1005D0000CC10F4000C00F4000093D0004C10F4096
:1005E00000000010001BB700A0C10F40ACC10F40BD
:1005F0006300050084C00F408CC00F4080C00F40D6
:10060000A4C00F40ACC00F40A0C00F40A8C00F4016
:10061000DE872804C4C00F40800400BF0100A0F1A1
:100620000100FBD170472DE9F04106460D46002739
:10063000012D06D1FE48006840F40070FC490860B6
:1006400005E0FB48006820F40070F94908600724C1
:1006500022E08020F649C8610120FFF7DDFF012D6F
:100660000CD10120A040304203D06802F0498861DB
:100670000BE04FF40070EE49C86106E0EC484069B9
:10068000C0F34020A0403843C7B28020E8498861C9
:100690000120FFF7C1FF641E002CDADA3846BDE8FE
:1006A000F08110B504464020E149C861702000F097
:1006B0004CFD002000F049FD204600F046FD4020A2
:1006C000DB49886110BD10B504464020D849C86197
:1006D000722000F03AFD201200F037FDE0B200F089
:1006E00034FD4020D249886110BD70B505462846CA
:1006F000FFF7D7FF00BF00244020CD49C861732019
:1007000000F023FD002000F020FD002000F01DFD82
:1007100004464FF6FF7000EA0424002000F015FDA7
:1007200004434020C2498861204670BD10B5C148CD
:10073000006820F47C20BF4908600846006C40F443
:100740002A200864BA48006840F08000B849086070
:1007500040208861802088614020C861012170208C
:10076000FFF761FF01210020FFF75DFF4020B04946
:100770008861C86101217320FFF755FF00210846F9
:10078000FFF751FF04464020A949886108460068E8
:1007900020F080000860A748006840F42820A549A0
:1007A00008600846006C20F47F200864204610BDD5
:1007B00010B5A148006840F48060A049C1F8C400A9
:1007C0000846D0F8A80140F40010C1F8A8019948E3
:1007D000406A20F07060974948629548D0F88000E0
:1007E00040F04050964908604FF000509049C1F8E1
:1007F00098000846006840F0400008604FF0400054
:1008000088618C48006820F47C208A49086008468A
:10081000006840F42820086040F2C7108949086049
:100820004FF0020008614860FFF780FF04461CB9E2
:100830000020FFF75AFF0446472C7DD10120824952
:1008400008700021EA2000F0A2FC2021EB2000F03B
:100850009EFC0C21EC2000F09AFCC721ED2000F05A
:1008600096FC3821E82000F092FC1021E92000F0ED
:100870008EFC0121F12000F08AFC1021F22000F012
:1008800086FC0121402000F082FC0021412000F084
:100890007EFC0021422000F07AFC1021432000F071
:1008A00076FC0E21442000F072FC2421452000F04B
:1008B0006EFC0421462000F06AFC5021472000F025
:1008C00066FC0221482000F062FC1321492000F060
:1008D0005EFC19214A2000F05AFC19214B2000F03F
:1008E00056FC16214C2000F052FC1B21502000F039
:1008F0004EFC3121512000F04AFC2F21522000F003
:1009000046FC3F21532000F042FC3F21542000F0E0
:100910003EFC3E21552000F03AFC2F21562000F0ED
:1009200036FC7B21572000F032FC0921582000F0D2
:100930002EFC0621592000E098E000F028FC06215A
:100940005A2000F024FC0C215B2000F020FC1D212B
:100950005C2000F01CFCCC215D2000F018FC1B2169
:10096000084600F014FC01211A2000F010FC2F2191
:10097000242000F00CFC5721252000F008FC8821E1
:10098000232000F004FC3621182000F000FC012197
:10099000192000F0FCFB0021012000F0F8FB882169
:1009A0001F2000F0F4FB1420FFF736FE82211F20E9
:1009B00000F0EDFB0520FFF72FFE92211F2000F035
:1009C000E6FB0520FFF728FED2211F2000F0DFFB09
:1009D0000520FFF721FE5521172000F0D8FB00214C
:1009E000084600F0D4FB11212F2000F0D0FB00219D
:1009F000312000F0CCFB0021322000F0C8FB382170
:100A0000282000F0C4FB1420FFF706FE3C2128201C
:100A100000F0BDFBA821162000F0B9FB00210E203C
:100A200000F0B5FB00210F2000F0B1FB01210DE02B
:100A300000C0092000C00240C4C00F4000C00F40E9
:100A400080C009200000034008000010102000F0C2
:100A50009EFB4021112000F09AFB0021122000F0A3
:100A600096FB0021132000F092FB91E10020F94950
:100A700008704FF48071012000F089FB4FF4E061B1
:100A8000022000F084FB0021042000F080FB40F2F3
:100A90000721082000F07BFB0021092000F077FBF4
:100AA00000210A2000F073FB00210C2000F06FFBF6
:100AB00000210D2000F06BFB00210F2000F067FBF0
:100AC0000021102000F063FB0021112000F05FFBEB
:100AD0000021122000F05BFB0021132000F057FBE7
:100AE0001420FFF799FD41F2B021102000F04FFBD8
:100AF0000721112000F04BFB0520FFF78DFD40F290
:100B0000BD11122000F043FB0520FFF785FD4FF4D7
:100B1000A051132000F03BFB0E21292000F037FBF1
:100B20000520FFF779FD0021202000F030FB002197
:100B3000212000F02CFBA4F5A840083806D0A0F531
:100B40007C5018387ED005287DD150E040F60D311C
:100B5000302000F01CFB41F62311312000F017FB80
:100B600041F62641322000F012FB42F21C61332094
:100B700000F00DFB42F21941342000F008FB40F672
:100B80000B51352000F003FB41F20601362000F046
:100B9000FEFA4FF4C261372000F0F9FA40F2067114
:100BA000382000F0F4FA4FF44171392000F0EFFAE8
:100BB00040F605613A2000F0EAFA40F601613B2078
:100BC00000F0E5FA4FF487713C2000F0E0FA40F2C3
:100BD0000E513D2000F0DBFA40F203413E2000F0D0
:100BE000D6FA40F207613F2000F0D1FA61E000211F
:100BF000302000F0CCFA40F20761312000F0C7FA53
:100C000040F20531322000F0C2FA0021352000F018
:100C1000BEFA41F20461362000F0B9FA4FF40171D6
:100C2000372000F0B4FA0121382000F0B0FA40F289
:100C30000771392000F0ABFA00213C2000F0A7FA40
:100C40000F2101E005E003E03D2000F0A0FA30E0D4
:100C500000BF0621302000F09AFA40F20111312045
:100C600000F095FA0321322000F091FA4FF48371DD
:100C7000352000F08CFA40F60231362000F087FA79
:100C800040F20231372000F082FA40F2077138203A
:100C900000F07DFA0721392000F079FA4FF4C061A5
:100CA0003C2000F074FA40F20B213D2000F06FFA76
:100CB00000BF00BF0021502000F069FAEF21512051
:100CC00000F065FA0021522000F061FA40F23F1175
:100CD000532000F05CFAA4F5A840083806D0A0F52F
:100CE0007C5018380AD0052807D100E000BF4FF427
:100CF0001C51602000F04BFA06E000BF4FF4274182
:100D0000602000F044FA00BF00BF0121612000F024
:100D10003EFA00216A2000F03AFA0021802000F01B
:100D200036FA0021812000F032FA0021822000F002
:100D30002EFA0021832000F02AFA0021842000F0FE
:100D400026FA0021852000F022FA1021902000F0E0
:100D50001EFA0021922000F01AFA0321932000F0DD
:100D600016FA4FF48871952000F011FA00219720AF
:100D700000F00DFA0021982000F009FA41F2380144
:100D8000032000F004FA40F23711072000F0FFF9C9
:100D90004FF080503049086010BD2DE9F0470446FF
:100DA0000D4616461F462B48007860B3A019A0F1E7
:100DB0000108E819A0F10109C4F30F21022000F095
:100DC000E6F9E1B2032000F0E2F9C8F30F210420B4
:100DD00000F0DDF908F0FF01052000F0D8F9C5F3B7
:100DE0000F21062000F0D3F9E9B2072000F0CFF977
:100DF000C9F30F21082000F0CAF909F0FF0109200A
:100E000000F0C5F91BE0A9B2502000F0C0F9E819C4
:100E1000401E81B2512000F0BAF9A1B2522000F078
:100E2000B6F9A019401E81B2532000F0B0F9A9B262
:100E3000202000F0ACF9A1B2212000F0A8F9BDE813
:100E4000F08710B5F0234FF4A07200210846FFF799
:100E5000A4FF10BD0800001098C0092070B504461A
:100E60000D46D048007820B3C4F30F21022000F0D3
:100E70008EF9E1B2032000F08AF9C4F30F210420B7
:100E800000F085F9E1B2052000F081F9C5F30F21EA
:100E9000062000F07CF9E9B2072000F078F9C5F3EC
:100EA0000F21082000F073F9E9B2092000F06FF972
:100EB00007E0A9B2202000F06AF9A1B2212000F0D9
:100EC00066F92220FFF7EDFBB7494888FFF7FBFBE7
:100ED00070BDB54948807047B3490880704770B508
:100EE0000546FFF7AEFF2220FFF7DBFB00F03AF9E3
:100EF000002403E0284600F041F9641CB4F5963F55
:100F0000F8D300F037F970BD2DE9FF5F8346164630
:100F100099460E9F4B46324658460199FFF73DFFD2
:100F20002220FFF7BEFB00F01DF9F01D4FEAD00AAA
:100F3000BAF1010F16D1002511E097F800807F1C4F
:100F4000002409E028FA04F101F00101964A32F880
:100F5000110000F013F9641CB442F3D36D1C4D452D
:100F6000EBD318E0BAF1020F15D1002511E0B7F864
:100F70000080BF1C002409E028FA04F101F00101FF
:100F8000894A32F8110000F0F9F8641CB442F3D336
:100F90006D1C4D45EBD300F0EDF8BDE8FF9FF8B5B3
:100FA00005460E4617461C46A4F12000C4B217B1F0
:100FB000012F1CD10CE07D4800EBC400E90006EBDA
:100FC00046020090500008230622FFF79DFF0EE026
:100FD00004EB4400764901EB001005EB4502D1001B
:100FE0000090300118231022FFF78EFF00BF00BFD2
:100FF000F8BD2DE9F04106460D4617461C4607E0B0
:1010000014F8013B29466D1C3A463046FFF7C7FFEE
:1010100020780028F4D1BDE8F08170B590B0064684
:101020000D46FFF70EFF15B1012D1CD10DE0002478
:1010300004E0202001A90855601CC4B2362CF8DB5E
:10104000002101AA601C11540DE0002404E02020BE
:1010500001A90855601CC4B2142CF8DB002101AAB8
:10106000601C115400BF00BF01AB2A46002130466E
:10107000FFF7BFFF10B070BD2DE9F04781468A46EB
:1010800014461E46089F07FB04F0870A3346224693
:1010900051464846FFF781FE2220FFF702FB00F091
:1010A00061F84FF0000812E000250BE0BD4204D3C8
:1010B0003D49088800F062F803E03B49488800F0A9
:1010C0005DF86D1C601EA842F0D208F10108B04521
:1010D000EAD300F04FF8BDE8F0872DE9F05F8046D5
:1010E000894614461F46DDF828A0D3463B462246D3
:1010F00049464046FFF751FE2220FFF7D2FA00F0A2
:1011000031F8781E00FB04F50AE0002605E0A91975
:101110003BF8110000F032F8761CA642F7D32D1BE5
:10112000002DF2DA00F026F8BDE8F09F704710B508
:1011300004462046FFF7B5FA10BD70B504460D46CB
:101140002946204600F023F870BD01461948816009
:1011500000BF1848C06810F0040FFAD01548806826
:10116000C0B2704710B540201349C8617220FFF724
:10117000ECFF10BD402010498861704710B504464F
:101180002012FFF7E2FFE0B2FFF7DFFF10BD70B5FE
:1011900005460C462846FFF784FA2046FFF793FAE7
:1011A00070BD0000080000100400001018150000B9
:1011B000981800000000034000C00920002006E04D
:1011C000002100E0491CB1F57A7FFBDD401C42F2B2
:1011D00010729042F4DD704710B50446082C3DD2E1
:1011E000DFE804F0040B121920272E3583A3012217
:1011F00000210620FFF7FDFE30E085A3012200213B
:101200000620FFF7F6FE29E086A301220021062032
:10121000FFF7EFFE22E088A3012200210620FFF75E
:10122000E8FE1BE075A3012200210620FFF7E1FE86
:1012300014E077A3012200210620FFF7DAFE0DE07B
:1012400078A3012200210620FFF7D3FE06E07AA34F
:10125000012200210620FFF7CCFE00BF00BF10BD19
:1012600086B0002579A207CA01AB07C37A48006897
:1012700040F400407949C1F8C4007948006840F45E
:10128000FF00774908600846006A20F0FF600862A6
:10129000FFF78EFA4FF6FF70FFF721FE1F20FFF7D2
:1012A0001BFE4FF6FF70FFF714FE6EA30122002114
:1012B0000846FFF79EFE71A3012200211046FFF7AA
:1012C00098FE74A3012200210220FFF792FE4FF640
:1012D000FF70FFF701FE1F20FFF7FBFD73A3012244
:1012E00000210520FFF785FE002400BF0027E0B2A3
:1012F00040F0F007F8035A494861002500BF4FF05D
:10130000000903E009F1010000F0FF09B9F1640FE1
:10131000F8DD5348406B00F4F0084FEAD8484646E1
:1013200046F0F006B2466FEA0A0000F0FF0ABAF192
:10133000000F06D162A3012200210620FFF759FE0B
:10134000DDE700BF04967610B246049810F0010065
:10135000049002D0681CC5B2F4E72846FFF73CFFB2
:1013600000BFFFF72BFF01A8405D001B00D518E070
:1013700001A8405D001B00D127E058A301220021F5
:101380000720FFF736FE601C44B2E7B247F0F007D3
:101390003348406920F4FF0040EAC73030494861D3
:1013A000DFE752A3012200210720FFF722FE601E83
:1013B00044B2E7B247F0F0072948406920F4FF0043
:1013C00040EAC73026494861CBE74CA301220021FF
:1013D0000720FFF70EFE00200590052005900598D8
:1013E0002844C5B201A810F805B01D48406920F492
:1013F000FF0040EACB301A49486177E7474E442066
:10140000464C4F4F52205245515545535445440088
:1014100031535420464C4F4F52205245515545535D
:1014200054454400324E4420464C4F4F52205245C2
:10143000515545535445440033524420464C4F4F78
:101440005220524551554553544544000003060966
:1014500000E0D3B679000000C4C00F4000C00F40C8
:1014600000C009202020202020202020455341209A
:1014700020202020202020200000000020202020EC
:101480002042616E67616C6F7265202020202020F1
:101490000000000020207777772E657361696E6405
:1014A00069612E636F6D2020000000002020202045
:1014B0002020454C455641544F522020000000004A
:1014C00057454C434F4D4520505245535320464CB1
:1014D0004F4F52204E554D424552000020474F4934
:1014E0004E4720555057415244532000474F494ED4
:1014F0004720444F574E57415244530020444553D0
:1015000054494E4154494F4E2000000001491820D3
:10151000ABBEFEE726000200000000000000000055
:1015200004040404040004000A0A0A000000000085
:101530000A0A1F0A1F0A0A00041E050E140F0400DF
:101540000313080402191800020505021509160004
:101550000C0C04020000000008040202020408004F
:1015600002040808080402000004150E0E15040009
:101570000004041F04040000000000000C0C04021E
:101580000000001F0000000000000000000C0C0024
:1015900000100804020100000E11131519110E00AD
:1015A0000406040404040E000E11100E01011F00B5
:1015B0001F10080C10110E00080C0A091F08080063
:1015C0001F010F1010110E001C02010F11110E004F
:1015D0001F101008040201000E11110E11110E004F
:1015E0000E11111E10080700000004000400000086
:1015F00000000400040402001008040204081000A3
:1016000000001F001F000000020408100804020070
:101610000E11100C040004000E11151D0D011E000A
:10162000040A11111F1111000F11110F11110F00D8
:101630000E11010101110E000F11111111110F00F6
:101640001F01010F01011F001F01010F0101010016
:101650001E11010119111E001111111F111111008C
:101660000E04040404040E001C08080808090600FF
:1016700011090503050911000101010101011F0004
:10168000111B151515111100111113151911110048
:101690000E11111111110E000F11110F0101010096
:1016A0000E111111150916000F11110F0509110066
:1016B0000E11010E10110E001F1504040404040085
:1016C0001111111111110E0011111111110A040043
:1016D0001111111515150A0011110A040A11110032
:1016E00011110A04040404001F10080E02011F0057
:1016F0001E02020202021E00000102040810000085
:101700001E10101010101E00040A1100000000002E
:101710000000000000001F00060604080000000092
:10172000000006080E091E0001010D1311130D0023
:1017300000000E1101110E001010161911191600DB
:1017400000000E111F010E000814040E0404040012
:1017500000000E191916100E01010D1311111100C0
:101760000400060404040E00080008080809060026
:1017700001010905030509000604040404040E0020
:1017800000000B151515150000000D1311111100A7
:1017900000000E1111110E0000000D13130D0101B8
:1017A000000016191916101000000D130101010098
:1017B00000001E010E100F0004041F040414080092
:1017C000000011111119160000001111110A040076
:1017D0000000111115150A000000110A040A110079
:1017E000000011111E10110E00001F0804021F003E
:1017F00008040402040408000404040004040400AF
:10180000020404080404020002150800000000009D
:10181000000000000000000000000C12120C00008C
:1018200000000C1E1E0C000000001E12121E000004
:1018300000001E1E1E1E000000000C0C121E0000E8
:1018400000000C0C1E1E000000001E120C0C0000FC
:1018500000001E1E0C0C00000000181616180000D8
:101860000000181E1E1800000000061A1A060000CC
:101870000000061E1E06000000000C12120C0000E4
:1018800000000C1E1E0C000000001E12121E0000A4
:1018900000001E1E1E1E00000000000000000000D0
:1018A0000000000000000000000000000000000038
:1018B0000000000000000000000000000000000028
:1018C0000000000000000000000080018001800195
:1018D0008001800180018001800180018001800100
:1018E00080018001000000008001800100000000F4
:1018F000000000000000000000000000CC00CC0050
:10190000CC00CC00CC00CC000000000000000000A7
:1019100000000000000000000000000000000000C7
:1019200000000000000000000000000000000000B7
:1019300000000000600C600C600C30063006FE1FDA
:10194000FE1F300638071803FE1FFE1F180318037A
:101950008C018C018C01000000008000E003F80F76
:101960009C0E8C1C8C188C009800F801E007800EEF
:10197000801C8C188C189C18B80CF00FE0038000A9
:1019800080000000000000000000000000000E18B1
:101990001B0C110C11061106110311039B018E0182
:1019A000C038C06C60446044304430441844186C03
:1019B0000C380000000000000000E001F0033807D0
:1019C000180618063003F001F000F8009C310E33C1
:1019D000061E061C061C063FFC73F02100000000DA
:1019E0000000000000000000000000000C000C00DF
:1019F0000C000C000C000C000000000000000000B7
:101A000000000000000000000000000000000000D6
:101A10000000000000000000000000020003800140
:101A2000C000C000600060003000300030003000B6
:101A3000300030003000300060006000C000C000A6
:101A40008001000300020000000020006000C000D0
:101A50008001800100030003000600060006000666
:101A60000006000600060006000300038001800156
:101A7000C000600020000000000000000000000026
:101A800000000000C000C000D806F807E0013003E5
:101A90003807000000000000000000000000000007
:101AA0000000000000000000000000000000000036
:101AB0000000000080018001800180018001FC3F66
:101AC000FC3F800180018001800180010000000056
:101AD0000000000000000000000000000000000006
:101AE00000000000000000000000000000000000F6
:101AF00000000000000000000000800180010001E3
:101B00000001800000000000000000000000000054
:101B100000000000000000000000000000000000C5
:101B2000E007E007000000000000000000000000E7
:101B300000000000000000000000000000000000A5
:101B40000000000000000000000000000000000095
:101B500000000000000000000000C000C000000005
:101B600000000000000000000000000C000C000657
:101B700000060006000300030003800380018001CB
:101B80008001C000C000C0006000600000000000D4
:101B900000000000000000000000E003F007380E25
:101BA000180C0C180C180C180C180C180C180C1815
:101BB0000C180C18180C380EF007E0030000000099
:101BC0000000000000000000000000018001C001D2
:101BD000F00198018801800180018001800180016D
:101BE00080018001800180018001800100000000EF
:101BF00000000000000000000000E003F80F180CD7
:101C00000C180C1800180018000C000600038001C6
:101C1000C000600030001800FC1FFC1F0000000026
:101C200000000000000000000000E001F807180EAE
:101C30000C0C0C0C000C0006C003C007000C0018B4
:101C400000180C180C18180CF807E003000000002E
:101C500000000000000000000000000C000E000F5B
:101C6000000F800DC00C600C600C300C180C0C0CBC
:101C7000FC3FFC3F000C000C000C000C00000000BE
:101C800000000000000000000000F80FF80F18002E
:101C900018000C00EC03FC071C0E001C00180018B8
:101CA00000180C181C0C180EF807E00300000000C8
:101CB00000000000000000000000C007F00F381C0A
:101CC000181818000C00CC03EC0F3C0E1C1C0C1850
:101CD0000C180C18181C380EF007E0030000000068
:101CE00000000000000000000000FC1FFC1F000CB2
:101CF00000060006000380038001C001C000E00070
:101D00006000600070003000300030000000000013
:101D100000000000000000000000E003F007380EA3
:101D2000180C180C180C3806F007F007180C0C18D3
:101D30000C180C180C18380CF80FE0030000000009
:101D400000000000000000000000E003F007380E73
:101D50001C0C0C180C180C181C1C381EF81BE01955
:101D60000018000C000C1C0EF807F0010000000029
:101D70000000000000000000000000000000000063
:101D80000000000080018001000000000000000051
:101D90000000000000000000800180010000000041
:101DA0000000000000000000000000000000000033
:101DB0000000000080018001000000000000000021
:101DC000000000000000000080018001000100010F
:101DD0008000000000000000000000000000000083
:101DE00000000000000000000010001C800FE00355
:101DF000F8001800F800E003800F001C001000003D
:101E000000000000000000000000000000000000D2
:101E10000000000000000000F81F000000000000AB
:101E2000F81F00000000000000000000000000009B
:101E300000000000000000000000000000000000A2
:101E4000000000000000000008003800F001C0079A
:101E5000001F0018001FC007F00138000800000034
:101E600000000000000000000000E003F80F180C64
:101E70000C180C180018000C000600038001C000AC
:101E8000C000C00000000000C000C0000000000052
:101E9000000000000000000000000000E00718182B
:101EA0000420C229224A1144094409440944092250
:101EB0001113E20C024004201818E0070000000093
:101EC0000000000000000000000080038003C00646
:101ED000C006C006600C600C301830183018F83F8F
:101EE000F83F1C700C600C6006C006C000000000CB
:101EF00000000000000000000000FC03FC0F0C0CC0
:101F00000C180C180C180C0CFC07FC0F0C180C30DF
:101F10000C300C300C300C18FC1FFC0700000000CB
:101F200000000000000000000000C007F01F38386B
:101F30001C300C7006600600060006000600060055
:101F4000060006600C701C30F01FE0070000000067
:101F500000000000000000000000FE03FE0F060E5F
:101F600006180618063006300630063006300630F1
:101F7000063006180618060EFE0FFE0300000000CD
:101F800000000000000000000000FC3FFC3F0C00CF
:101F90000C000C000C000C00FC1FFC1F0C000C00C3
:101FA0000C000C000C000C00FC3FFC3F000000008B
:101FB00000000000000000000000F83FF83F18009B
:101FC0001800180018001800F81FF81F1800180053
:101FD0001800180018001800180018000000000071
:101FE00000000000000000000000E00FF83F3C7817
:101FF0000E6006E007C00300030003FE03FE03C0FB
:1020000007C006C00EC03CF0F83FE00F0000000023
:10201000000000000000000000000C300C300C300C
:102020000C300C300C300C30FC3FFC3F0C300C30D2
:102030000C300C300C300C300C300C300000000038
:10204000000000000000000000008001800180010D
:102050008001800180018001800180018001800178
:10206000800180018001800180018001000000006A
:10207000000000000000000000000006000600064E
:102080000006000600060006000600060006000620
:102090000006180618063807F003E00100000000EB
:1020A0000000000000000000000006300618060CCA
:1020B000060606038601C60066007600DE008E0175
:1020C00006030606060C061806300660000000002F
:1020D00000000000000000000000180018001800B8
:1020E0001800180018001800180018001800180030
:1020F0001800180018001800F81FF81F0000000052
:10210000000000000000000000000EE01EF01EF0C5
:102110001EF036D836D836D836D866CC66CC66CCE3
:10212000C6C6C6C6C6C6C6C686C386C300000000ED
:10213000000000000000000000000C301C303C30AB
:102140003C306C306C30CC30CC308C310C330C33B8
:102150000C360C360C3C0C3C0C380C3000000000EB
:1021600000000000000000000000E007F81F1C381D
:102170000E70066003C003C003C003C003C003C0E9
:1021800003C006600E701C38F81FE0070000000056
:1021900000000000000000000000FC0FFC1F0C38D5
:1021A0000C300C300C300C300C18FC1FFC070C00F1
:1021B0000C000C000C000C000C000C0000000000D7
:1021C00000000000000000000000E007F81F1C38BD
:1021D0000E70066003E003C003C003C003C003C069
:1021E00007E006630E3F1C3CF83FE0F700C000002C
:1021F00000000000000000000000FE0FFE1F063877
:102200000630063006300638FE1FFE0706030606B7
:10221000060C06180618063006300660000000009E
:1022200000000000000000000000E003F80F1C0C9C
:102230000C180C180C001C00F803E00F001E0038EE
:10224000063006300E301C1CF80FE00700000000BE
:1022500000000000000000000000FE7FFE7F800103
:102260008001800180018001800180018001800166
:102270008001800180018001800180010000000058
:10228000000000000000000000000C300C300C309A
:102290000C300C300C300C300C300C300C300C305E
:1022A0000C300C300C301818F81FE007000000004C
:1022B000000000000000000000000360063006304F
:1022C00006300C180C180C18180C180C380E3006A8
:1022D0003006700760036003C001C0010000000009
:1022E000000000000000000000000360C361C36143
:1022F000C3616633663366336633663366336C1B9D
:102300006C1B6C1B2C1A3C1E380E380E0000000093
:10231000000000000000000000000FE00C7018300A
:102320003018700C600EC00780038003C003E00605
:10233000700C301C18180C300E6007E00000000014
:102340000000000000000000000003C006600C3028
:102350001C383818300C6006E007C003800180018B
:102360008001800180018001800180010000000067
:1023700000000000000000000000FC7FFC7F006007
:1023800000300018000C000600038001C00060004F
:10239000300018000C000600FE7FFE7F00000000E9
:1023A00000000000000000000000E003E003600007
:1023B000600060006000600060006000600060001D
:1023C000600060006000600060006000600060000D
:1023D0006000E003E0030000000030003000600017
:1023E00060006000C000C000C000C001800180012A
:1023F0008001000300030003000600060000000047
:1024000000000000000000000000E003E003000303
:1024100000030003000300030003000300030003A4
:102420000003000300030003000300030003000394
:102430000003E003E003000000000000C001C00151
:1024400060036003600330063006180C180C0000AF
:10245000000000000000000000000000000000007C
:10246000000000000000000000000000000000006C
:10247000000000000000000000000000000000005C
:1024800000000000000000000000FFFFFFFF000050
:10249000000000000000000000000C000C000C0018
:1024A0000C000C000C000000000000000000000008
:1024B000000000000000000000000000000000001C
:1024C000000000000000000000000000000000000C
:1024D00000000000F003F8071C0C0C0C000FF00FBC
:1024E000F80C0C0C0C0C1C0FF80FF018000000007E
:1024F0000000000000000000000018001800180094
:1025000018001800D803F80F380C181818181818E5
:10251000181818181818380CF80FD8030000000005
:1025200000000000000000000000000000000000AB
:1025300000000000C003F007300E180C180018004F
:1025400018001800180C300EF007C003000000003F
:102550000000000000000000000000180018001833
:1025600000180018C01BF01F301C18181818181875
:10257000181818181818301CF01FC01B0000000095
:10258000000000000000000000000000000000004B
:1025900000000000C003F00F300C1818F81FF81FDF
:1025A000180018003818301CF00FC0070000000099
:1025B00000000000000000000000800FC00FC000FD
:1025C000C000C000F007F007C000C000C000C0009D
:1025D000C000C000C000C000C000C000000000007B
:1025E00000000000000000000000000000000000EB
:1025F00000000000E00DF80F180E0C0C0C0C0C0C79
:102600000C0C0C0C0C0C180EF80FE00D000C0C0C44
:102610001C06F807F0010000000018001800180060
:1026200018001800D807F80F381C181818181818B0
:10263000181818181818181818181818000000007A
:1026400000000000000000000000C000C00000000A
:1026500000000000C000C000C000C000C000C000FA
:10266000C000C000C000C000C000C00000000000EA
:1026700000000000000000000000C000C0000000DA
:1026800000000000C000C000C000C000C000C000CA
:10269000C000C000C000C000C000C000C000C0003A
:1026A000C000F8007800000000000C000C000C00D6
:1026B0000C000C000C0C0C060C038C01CC006C0004
:1026C000FC009C018C030C030C060C0C00000000A9
:1026D00000000000000000000000C000C000C000BA
:1026E000C000C000C000C000C000C000C000C000EA
:1026F000C000C000C000C000C000C000000000005A
:1027000000000000000000000000000000000000C9
:10271000000000007C3CFF7EC7E383C183C183C10E
:1027200083C183C183C183C183C183C10000000011
:102730000000000000000000000000000000000099
:10274000000000009807F80F381C181818181818FF
:102750001818181818181818181818180000000059
:102760000000000000000000000000000000000069
:1027700000000000C003F00F300C181818181818CB
:10278000181818181818300CF00FC00300000000BB
:102790000000000000000000000000000000000039
:1027A00000000000D803F80F380C18181818181873
:1027B000181818181818380CF80FD8031800180033
:1027C00018001800180000000000000000000000C1
:1027D00000000000C01BF01F301C18181818181833
:1027E000181818181818301CF01FC01B00180018F3
:1027F0000018001800180000000000000000000091
:1028000000000000B007F00370003000300030001E
:102810003000300030003000300030000000000098
:1028200000000000000000000000000000000000A8
:1028300000000000E003F003380E180C3800F0032D
:10284000C007000C180C380EF007E0030000000071
:102850000000000000000000000000008000C00038
:10286000C000C000F007F007C000C000C000C000FA
:10287000C000C000C000C000C0078007000000000A
:102880000000000000000000000000000000000048
:102890000000000018181818181818181818181818
:1028A000181818181818381CF01FE019000000003C
:1028B0000000000000000000000000000000000018
:1028C000000000000C18180C180C180C300630060C
:1028D0003006600360036003C001C0010000000017
:1028E00000000000000000000000000000000000E8
:1028F00000000000C141C141C3616363636363635E
:102900003636363636361C1C1C1C1C1C00000000DB
:1029100000000000000000000000000000000000B7
:10292000000000001C38381C300C6006C003C003D7
:10293000C003C0036006300C381C1C3800000000C7
:102940000000000000000000000000000000000087
:10295000000000001830301830187018600C600C3F
:10296000E00CC006C0068003800380038001800164
:10297000C001F00070000000000000000000000036
:1029800000000000FC1FFC1F000C0006000380017B
:10299000C000600030001800FC1FFC1F0000000099
:1029A0000000000000000000000000038001C000E3
:1029B000C000C000C000C000C00060006000300067
:1029C00060004000C000C000C000C000C000C000E7
:1029D00080010003000000000000800180018001F0
:1029E00080018001800180018001800180018001DF
:1029F00080018001800180018001800180018001CF
:102A0000800180018001000000006000C000C00162
:102A10008001800180018001800100030003000625
:102A2000000300018001800180018001800180019C
:102A3000C000600000000000000000000000000076
:102A40000000000000000000F010F81F080F000058
:102A50000000000000000000000000000000000076
:102A60000000000000000000000000000000000066
:102A70000000000000000000000000000000000056
:102A80000000000000000000000000000000000046
:102A90000000000000000000000000000000000036
:102AA0000000C003300C0810042004200240024043
:102AB000024002400240042004200810300CC003F1
:102AC0000000000000000000000000000000000006
:102AD0000000C003F00FF81FFC3FFC3FFE7FFE7FAD
:102AE000FE7FFE7FFE7FFC3FFC3FF81FF00FC00320
:102AF00000000000000000000000000000000000D6
:102B0000000000000000E007F00F1818181818184F
:102B1000181818181818F00FE0070000000000003F
:102B200000000000000000000000000000000000A5
:102B3000000000000000E007F00FF81FF81FF81F6A
:102B4000F81FF81FF81FF00FE0070000000000005A
:102B50000000000000000000000000000000000075
:102B60000000000000000000000000000000000065
:102B70008001C0036006300C18181818F81FF81FE1
:102B80000000000000000000000000000000000045
:102B90000000000000000000000000000000000035
:102BA0008001C003E007F00FF81FF81FF81FF81F9F
:102BB0000000000000000000000000000000000015
:102BC000F81FF81F18181818300C6006C003800191
:102BD00000000000000000000000000000000000F5
:102BE00000000000000000000000000000000000E5
:102BF000F81FF81FF81FF81FF00FE007C00380014F
:102C000000000000000000000000000000000000C4
:102C100000000000000000000000000000000000B4
:102C2000000000000000E001F00198018C01860125
:102C300086018C019801F001E00100000000000015
:102C40000000000000000000000000000000000084
:102C5000000000000000E001F001F801FC01FE01AD
:102C6000FE01FC01F801F001E0010000000000009D
:102C70000000000000000000000000000000000054
:102C80000000000000008007800F80198031806103
:102C9000806180318019800F8007000000000000F3
:102CA0000000000000000000000000000000000024
:102CB0000000000000008007800F801F803F807FA1
:102CC000807F803F801F800F800700000000000091
:102CD00000000000000000000000C00120022002EF
:102CE000400130060808080808080808080808080D
:102CF00008082002200220022002200220022002D6
:102D000020022002200200000000C001E003E003D6
:102D1000C001F007D80DD80DD80DD80DD80DD80D9D
:102D2000D80D600360036003600360036003600309
:102D300060036003600300000000C0012002200265
:102D40004001300608080808080804100220022084
:102D50004001200220021004080808080410041092
:102D600004200440000000000000C001E003E00374
:102D7000C001F007D80DD80DD80DCC19C631C261ED
:102D8000C001600360037006380C180C0C180C1896
:102D90000C300C6000000000B82D00000000001096
:102DA0000C00000008010000C42D00000C00001001
:102DB000640200002401000000E1F505FFFF0000AF
:042DC000000000000F
:04000005000000CD2A
:00000001FF
